{
  "contractName": "ChequeDefi",
  "abi": [
    {
      "inputs": [
        {
          "internalType": "bytes32",
          "name": "",
          "type": "bytes32"
        }
      ],
      "name": "balances",
      "outputs": [
        {
          "internalType": "uint256",
          "name": "",
          "type": "uint256"
        }
      ],
      "stateMutability": "view",
      "type": "function",
      "constant": true
    },
    {
      "inputs": [
        {
          "internalType": "bytes32",
          "name": "hash",
          "type": "bytes32"
        }
      ],
      "name": "deposit",
      "outputs": [],
      "stateMutability": "payable",
      "type": "function",
      "payable": true
    },
    {
      "inputs": [
        {
          "internalType": "bytes32",
          "name": "hash",
          "type": "bytes32"
        },
        {
          "internalType": "string",
          "name": "secret",
          "type": "string"
        }
      ],
      "name": "redeem",
      "outputs": [],
      "stateMutability": "nonpayable",
      "type": "function"
    }
  ],
  "bytecode": "0x608060405234801561001057600080fd5b506106e1806100206000396000f3fe6080604052600436106100345760003560e01c80635c3e0980146100395780638909aa3f14610062578063b214faa51461009f575b600080fd5b34801561004557600080fd5b50610060600480360381019061005b91906103c9565b6100bb565b005b34801561006e57600080fd5b5061008960048036038101906100849190610425565b6101c2565b604051610096919061046b565b60405180910390f35b6100b960048036038101906100b49190610425565b6101da565b005b6100c58282610206565b610104576040517f08c379a00000000000000000000000000000000000000000000000000000000081526004016100fb906104e3565b60405180910390fd5b60008060008481526020019081526020016000205490506000811161015e576040517f08c379a000000000000000000000000000000000000000000000000000000000815260040161015590610575565b60405180910390fd5b6000806000858152602001908152602001600020819055503373ffffffffffffffffffffffffffffffffffffffff166108fc829081150290604051600060405180830381858888f193505050501580156101bc573d6000803e3d6000fd5b50505050565b60006020528060005260406000206000915090505481565b3460008083815260200190815260200160002060008282546101fc91906105c4565b9250508190555050565b6000828260405160200161021a9190610694565b6040516020818303038152906040528051906020012014905092915050565b6000604051905090565b600080fd5b600080fd5b6000819050919050565b6102608161024d565b811461026b57600080fd5b50565b60008135905061027d81610257565b92915050565b600080fd5b600080fd5b6000601f19601f8301169050919050565b7f4e487b7100000000000000000000000000000000000000000000000000000000600052604160045260246000fd5b6102d68261028d565b810181811067ffffffffffffffff821117156102f5576102f461029e565b5b80604052505050565b6000610308610239565b905061031482826102cd565b919050565b600067ffffffffffffffff8211156103345761033361029e565b5b61033d8261028d565b9050602081019050919050565b82818337600083830152505050565b600061036c61036784610319565b6102fe565b90508281526020810184848401111561038857610387610288565b5b61039384828561034a565b509392505050565b600082601f8301126103b0576103af610283565b5b81356103c0848260208601610359565b91505092915050565b600080604083850312156103e0576103df610243565b5b60006103ee8582860161026e565b925050602083013567ffffffffffffffff81111561040f5761040e610248565b5b61041b8582860161039b565b9150509250929050565b60006020828403121561043b5761043a610243565b5b60006104498482850161026e565b91505092915050565b6000819050919050565b61046581610452565b82525050565b6000602082019050610480600083018461045c565b92915050565b600082825260208201905092915050565b7f496e76616c696420726571756573740000000000000000000000000000000000600082015250565b60006104cd600f83610486565b91506104d882610497565b602082019050919050565b600060208201905081810360008301526104fc816104c0565b9050919050565b7f4e6f2066756e6473206173736f6369617465642077697468207468697320686160008201527f7368000000000000000000000000000000000000000000000000000000000000602082015250565b600061055f602283610486565b915061056a82610503565b604082019050919050565b6000602082019050818103600083015261058e81610552565b9050919050565b7f4e487b7100000000000000000000000000000000000000000000000000000000600052601160045260246000fd5b60006105cf82610452565b91506105da83610452565b9250827fffffffffffffffffffffffffffffffffffffffffffffffffffffffffffffffff0382111561060f5761060e610595565b5b828201905092915050565b600081519050919050565b600081905092915050565b60005b8381101561064e578082015181840152602081019050610633565b8381111561065d576000848401525b50505050565b600061066e8261061a565b6106788185610625565b9350610688818560208601610630565b80840191505092915050565b60006106a08284610663565b91508190509291505056fea26469706673582212207a742ce69a4c4b1bba687ca2b8c9e25666954f2afe17d8e6e4eed597499116e064736f6c634300080d0033",
  "immutableReferences": {},
  "source": "/* SPDX-License-Identifier: MIT */\npragma solidity >=0.4.22 <0.9.0;\n\ncontract ChequeDefi {\n    mapping(bytes32 => uint256) public balances;\n\n    function deposit(bytes32 hash) public payable {\n        balances[hash] += msg.value;\n    }\n\n    function redeem(bytes32 hash, string memory secret) public {\n        require(requestIsValid(hash, secret), \"Invalid request\");\n\n        uint256 amount = balances[hash];\n        require(amount > 0, \"No funds associated with this hash\");\n        \n        balances[hash] = 0;\n        payable(msg.sender).transfer(amount);\n    }\n\n    function requestIsValid(bytes32 hash, string memory secret) internal pure returns(bool) {\n        return keccak256(abi.encodePacked(secret)) == hash;\n    }\n}",
  "sourcePath": "/home/araki/chequedefi/truffle/contracts/ChequeDefi.sol",
  "compiler": {
    "name": "solc",
    "version": "0.8.13+commit.abaa5c0e.Emscripten.clang"
  },
  "schemaVersion": "3.4.13",
  "updatedAt": "2023-07-21T18:18:08.206Z",
  "networkType": "ethereum",
  "devdoc": {
    "kind": "dev",
    "methods": {},
    "version": 1
  },
  "userdoc": {
    "kind": "user",
    "methods": {},
    "version": 1
  }
}